{
  "address": "0x2279B7A0a67DB372996a5FaB50D91eAA73d2eBe6",
  "abi": [
    {
      "inputs": [
        {
          "internalType": "int256",
          "name": "_num",
          "type": "int256"
        }
      ],
      "stateMutability": "nonpayable",
      "type": "constructor"
    },
    {
      "inputs": [],
      "name": "getNumber",
      "outputs": [
        {
          "internalType": "int256",
          "name": "",
          "type": "int256"
        }
      ],
      "stateMutability": "view",
      "type": "function"
    },
    {
      "inputs": [],
      "name": "getOwner",
      "outputs": [
        {
          "internalType": "address",
          "name": "",
          "type": "address"
        }
      ],
      "stateMutability": "view",
      "type": "function"
    },
    {
      "inputs": [
        {
          "internalType": "int256",
          "name": "number",
          "type": "int256"
        }
      ],
      "name": "setNumber",
      "outputs": [],
      "stateMutability": "nonpayable",
      "type": "function"
    }
  ],
  "transactionHash": "0x41f0ff3abb3a1e75d3f5c54ee16541deda28d89f76766a8a2db1856ff72d418a",
  "args": [
    10
  ],
  "numDeployments": 2,
  "solcInputHash": "de86ce54ab0a95bd54f2fbd179b55ce4",
  "bytecode": "0x608060405234801561001057600080fd5b506040516102f63803806102f6833981810160405281019061003291906100bb565b8060008190555033600160006101000a81548173ffffffffffffffffffffffffffffffffffffffff021916908373ffffffffffffffffffffffffffffffffffffffff160217905550506100e8565b600080fd5b6000819050919050565b61009881610085565b81146100a357600080fd5b50565b6000815190506100b58161008f565b92915050565b6000602082840312156100d1576100d0610080565b5b60006100df848285016100a6565b91505092915050565b6101ff806100f76000396000f3fe608060405234801561001057600080fd5b50600436106100415760003560e01c8063893d20e8146100465780639cf27f3714610064578063f2c9ecd814610080575b600080fd5b61004e61009e565b60405161005b919061011c565b60405180910390f35b61007e60048036038101906100799190610172565b6100c8565b005b6100886100d2565b60405161009591906101ae565b60405180910390f35b6000600160009054906101000a900473ffffffffffffffffffffffffffffffffffffffff16905090565b8060008190555050565b60008054905090565b600073ffffffffffffffffffffffffffffffffffffffff82169050919050565b6000610106826100db565b9050919050565b610116816100fb565b82525050565b6000602082019050610131600083018461010d565b92915050565b600080fd5b6000819050919050565b61014f8161013c565b811461015a57600080fd5b50565b60008135905061016c81610146565b92915050565b60006020828403121561018857610187610137565b5b60006101968482850161015d565b91505092915050565b6101a88161013c565b82525050565b60006020820190506101c3600083018461019f565b9291505056fea264697066735822122044c7c090f6de517a4cb054c7e98fefe550a40b3aaa32c6122fd8f7b982ed752d64736f6c63430008120033",
  "devdoc": {
    "kind": "dev",
    "methods": {},
    "version": 1
  },
  "userdoc": {
    "kind": "user",
    "methods": {},
    "version": 1
  },
  "storageLayout": {
    "storage": [
      {
        "astId": 456,
        "contract": "contracts/Demo.sol:Demo",
        "label": "testNumber",
        "offset": 0,
        "slot": "0",
        "type": "t_int256"
      },
      {
        "astId": 458,
        "contract": "contracts/Demo.sol:Demo",
        "label": "owner",
        "offset": 0,
        "slot": "1",
        "type": "t_address"
      }
    ],
    "types": {
      "t_address": {
        "encoding": "inplace",
        "label": "address",
        "numberOfBytes": "20"
      },
      "t_int256": {
        "encoding": "inplace",
        "label": "int256",
        "numberOfBytes": "32"
      }
    }
  }
}